:0A0197003F065B4F666D7D077F6F2A
:0B018C00EF1FAC0670011E4C70F62245
:10000300E508B4320CE4F5087F941201658E0D8F78
:100013000E0508AE0DAF0E7C037DE81200997497B0
:100023002FF58274013EF583E493F509AE0DAF0E0F
:100033007C037DE8120099AA04AB057D647C00AFC4
:1000430003AE0212009974972FF58274013EF58373
:10005300E493F50A7D647C00AF03AE02120099AA13
:1000630004AB057D0A7C00AF03AE021200997497BE
:100073002FF58274013EF583E493F50B7D0A7C0032
:10008300AF03AE0212009974972DF58274013CF50B
:0500930083E493F50C6D
:010098002245
:1000EE00E4FDED14600E14601314601424037016F6
:1000FE00C2A28002D2A2C2A3C2A4800AC2A280025D
:10010E00D2A2D2A3C2A4C374039D2409F8E6F5803B
:0E011E007F647E0012018CE4F5800DBD04C4E8
:01012C0022B0
:0801A1001200031200EE80F8C9
:10012D00C2B6E4FEEFC4131313540124FF92B4EFCF
:0B013D0025E0FFC2B6D2B60EBE08E9F6
:010148002294
:10014900E4FFFEC2B6FDEF25E0FFEE33FED2B6C2F4
:0B015900B6A2B7E43342070DBD0CEB6B
:010164002278
:10016500C2B6C2B512012DE4FF0FBF06FCD2B60020
:0A01750000C2B60000120149D2B525
:01017F00225D
:030000000201807A
:0C018000787FE4F6D8FD75810E0201A125
:10009900BC000BBE0029EF8DF084FFADF022E4CC4B
:1000A900F875F008EF2FFFEE33FEEC33FCEE9DEC14
:1000B900984005FCEE9DFE0FD5F0E9E4CEFD22ED5A
:1000C900F8F5F0EE8420D21CFEADF075F008EF2FA4
:1000D900FFED33FD4007985006D5F0F222C398FD95
:0500E9000FD5F0EA2232
:00000001FF
