:0B10F800EF1FAC0670011E4C70F622CA
:1010C200AB07AA06EB1BAE0270011A4E60097F64E1
:0810D2007E001210F880ED22EF
:100FDD008F0B8E0A8D098C08E4FBFA780874FF12CA
:100FED000E95EC4D4E4F6013E4FAFBC3EB9402EA01
:0C0FFD00940050E70BBB00010A80F022BA
:10100900E4FDFCC3ED9FEE6480F8EC648098501514
:10101900E4FBFA0BBB00010ABA03F8BBE8F50DBD06
:0610290000010C80DE2234
:041119007590FF22AC
:10102F00D2917F017E001210F8D2907F017E0012C4
:10103F0010F8C2917F017E001210F8C2907F017EDE
:04104F00000210F893
:10108D00C2917F017E001210F8D2907F017E001276
:0B109D0010F8D2917F017E000210F8D5
:100DAA008F0AE4F50BAF0BE50AA807088002C333E4
:100DBA00D8FC30E704D2918002C2917F017E0012F2
:100DCA0010F8D2907F017E001210F8C2907F017E47
:100DDA00001210F8050BE50BC3940840C87F017E8A
:100DEA00001210F8D2907FE87E031210F8309105B5
:100DFA00E4F50C8003750C01C2907F017E0012108D
:040E0A00F8AF0C220F
:100FAE0053544338394335322043616D65726120A5
:100FBE005465737420004F56373637302020496EF3
:0F0FCE006974202053554343455353212020007D
:100C6900D2B7C2B6D2B5C295D296C294D294C29620
:100C7900C294D294C294D294C294D296D2957F0A45
:100C89007E007D007C00120FDD120A817F007EF854
:100C9900120E0E7BFF7A0F79AE750FF8751000E40E
:100CA900F511F5127D64FC7F14FE120D437F0A7E57
:100CB900001210C2121071BF01FAE4FFFE120E0EEB
:100CC9007BFF7A0F79C4750FF8751000E4F511F5FB
:100CD900127D6EFC7F3CFE120D437523007524EFD7
:100CE9007B3F7A01E4FDFCFFFE120EFB7FF47E01DF
:100CF9001210C2C2A0D2A1D2B6121114D2AFC2959B
:100D0900D296C294D294C296C294D294C294D294E6
:100D1900C294D296E4FFFEE4FDFCC294C2A2D2942E
:100D2900D2A20DBD00010CED64104C70ED0FBF0097
:0A0D3900010EBE25E2BF80DF80C47A
:05111400D2AAD28A22DC
:0300130002110DCA
:07110D00C293D293D292328B
:1000160000000000000000000000000000000000DA
:1000260000000000183C3C3C18180018180000009E
:100036000000000066666600000000000000000088
:100046000000000036367F3636367F363600000032
:10005600000018183C666030180C06663C1818003C
:1000660000000070D8DA760C18306E5B1B0E0000AC
:1000760000000000386C6C38606F66663B0000005C
:100086000000000018181800000000000000000022
:10009600000000000C1818303030303018180C00F2
:1000A600000000003018180C0C0C0C0C181830004E
:1000B600000000000000361C7F1C36000000000017
:1000C60000000000000018187E181800000000004C
:1000D600000000000000000000001C1C0C180000BE
:1000E600000000000000007E00000000000000008C
:1000F600000000000000000000001C1C00000000C2
:1001060000000006060C0C18183030606000000075
:100116000000001E333737333B3B331E0000000020
:100126000000000C1C7C0C0C0C0C0C0C00000000DD
:100136000000003C6666060C1830607E0000000079
:100146000000003C6666061C0666663C0000000071
:100156000000003030363636667F060600000000A6
:100166000000007E6060607C06060C7800000000DF
:100176000000001C18307C666666663C00000000C5
:100186000000007E060C0C1818303030000000000D
:100196000000003C6666763C6E66663C0000000029
:1001A6000000003C666666663E0C183800000000DB
:1001B60000000000001C1C0000001C1C00000000C9
:1001C60000000000001C1C0000001C1C0C18000095
:1001D600000000060C18306030180C060000000005
:1001E6000000000000007E007E000000000000000D
:1001F6000000006030180C060C183060000000008B
:100206000000003C66660C18180018180000000074
:100216000000007EC3C3CFDBDBCFC07F0000000041
:10022600000000183C6666667E6666660000000092
:100236000000007C6666667C6666667C00000000E0
:100246000000003C666660606066663C0000000078
:10025600000000786C66666666666C7800000000D2
:100266000000007E6060607C6060607E00000000D0
:100276000000007E6060607C6060606000000000DE
:100286000000003C666660606E66663E0000000028
:10029600000000666666667E6666666600000000AA
:1002A6000000003C181818181818183C0000000028
:1002B6000000003C666660606E66663E00000000F8
:1002C60000000066666C6C786C6C66660000000068
:1002D60000000060606060606060607E000000009A
:1002E6000000006363776B6B6B6363630000000061
:1002F6000000006363737B6F676363630000000045
:100306000000003C666666666666663C00000000A5
:100316000000007C6666667C60606060000000002D
:100326000000003C666666666666663C0C06000073
:100336000000007C6666667C6C66666600000000EF
:100346000000003C666030180C06663C00000000A9
:100356000000007E18181818181818180000000059
:1003660000000066666666666666663C000000001B
:10037600000000666666666666663C180000000059
:100386000000006363636B6B6B363636000000005B
:1003960000000066663418182C66666600000000C9
:1003A600000000666666663C181818180000000013
:1003B6000000007E06060C183060607E000000001B
:1003C6000000003C303030303030303030303C00CF
:1003D6000000006060303018180C0C0606000000A3
:1003E6000000003C0C0C0C0C0C0C0C0C0C0C3C0017
:1003F60000183C660000000000000000000000003D
:100406000000000000000000000000000000FF00E7
:100416000038180C0000000000000000000000007A
:1004260000000000003C06063E66663E0000000036
:1004360000000060607C66666666667C0000000000
:1004460000000000003C66606060663C0000000042
:1004560000000006063E66666666663E0000000010
:1004660000000000003C66667E60603C0000000004
:100476000000001E3030307E30303030000000008A
:1004860000000000003E66666666663E06067C0064
:1004960000000060607C66666666666600000000B6
:1004A60000001818007818181818187E00000000A8
:1004B60000000C0C003C0C0C0C0C0C0C0C0C78000A
:1004C600000000606066666C786C6666000000007E
:1004D60000000078181818181818187E0000000078
:1004E60000000000007E6B6B6B6B6B63000000000E
:1004F60000000000007C6666666666660000000016
:1005060000000000003C66666666663C000000006F
:1005160000000000007C66666666667C60606000BF
:1005260000000000003E66666666663E0606060039
:100536000000000000666E706060606000000000F1
:1005460000000000003E60603C06067C00000000E3
:1005560000000030307E30303030301E00000000A9
:1005660000000000006666666666663E00000000E3
:10057600000000000066666666663C180000000023
:100586000000000000636B6B6B6B363600000000EA
:10059600000000000066663C183C6666000000002D
:1005A60000000000006666666666663C0C18F00091
:1005B60000000000007E060C1830607E000000007F
:1005C6000000000C1818183060301818180C0000BD
:1005D60000000018181818181818181818181800F5
:1005E600000000301818180C060C181818300000F7
:1005F60000000071DB8E000000000000000000001B
:101053008E198F1AAD07AF06EFC2A0D2A1D2A3F5A6
:0E10630080C2A2D2A28D80C2A2D2A2D2A022AE
:0D000300C2A0D2A3C2A18F80C2A2D2A222AD
:0510DA001210DF7F038E
:0D10DF00C2A0D2A3D2A18F80C2A2D2A222B1
:0A110300AE05120003AF060210DF74
:100EFB008E1D8F1E7F2A120003E51DFF1210DFAF20
:100F0B001E1210DFAF021210DFAF031210DF7F2BA8
:100F1B00120003AF041210DFAF051210DFE523FF41
:0D0F2B001210DFAF241210DF7F2C02000334
:100A8100D2A47FC87E007D007C00120FDDC2A47F4E
:100A9100C87E007D007C00120FDDD2A47FC87E00DD
:100AA1007D007C00120FDD75A0FF7FC87E007D00F8
:100AB1007C00120FDDD2A3D2A2C2A47F147E001249
:100AC1001009D2A47F147E001210097FCF120003F7
:100AD100E4FF1210DF7FC11210DF7F301210DF7FC1
:100AE100ED1200037F641210DA7F121210DF7F8192
:100AF1001210DF7FCB1200037F391210DF7F2C121F
:100B010010DFFF1210DF7F341210DF7F021210DFBF
:100B11007FEA120003FF1210DF1210DF7FE81200DC
:100B2100037F851210DF7F101210DF7F791210DF33
:100B31007FC01200037F231210DF7FC11200037FE9
:100B4100111210DF7FC21200037F111210DF7FC567
:100B51001200037F3D1210DF7F301210DF7FC712BA
:100B610000037FAA1210DF7F3A1200037F55121093
:100B7100DF7F361200037FA81210DF7FB11200035E
:100B8100FF1210DF7F111210DF7FB61200037F0A00
:100B91001210DF7FA21210DF7FF2120003FF12108A
:100BA100DF7FF71200037F201210DF7FF1120003B5
:100BB1007F011210DF7F301210DF7F261200037FCA
:100BC100011210DF7FE01200037F0F1210DF7F3F61
:100BD1001210DF7F2F1210DF7F0C1210DF7F101237
:100BE10010DF7F0A1210DF7F531210DF7FD5121042
:100BF100DF7F401210DF7F0A1210DF7F131210DA3D
:100C01007F081210DAFF1210DF7FE1120003FF12DA
:100C110010DF1210DF7F101210DA7F0F1210DF7F4A
:100C2100051210DF7F2C1210DF7FA21210DF7F3F31
:100C31001210DF7F051210DF7F0E1210DF7F0C1202
:100C410010DF7F371210DF7F3C1210DF7F0F121091
:100C5100DF7F111200037F50FE1210097F2912005D
:080C6100037FE87E0302100985
:100E0E008F828E83E4F50BF50AF509F508F5237547
:100E1E0024EF7B3F7A01FDFCFFFE120EFBE4F50B87
:100E2E00F50AF509F5087F007E2C7D017C00AB0BE1
:100E3E00AA0AA909A808C3120E82501EAF82AE8359
:100E4E00121053E50B2401F50BE4350AF50AE435CF
:0B0E5E0009F509E43508F50880CC22F6
:100EB3008C158D168A178B18A907E4FC75F010E9B9
:100EC300A42416F582E5F034FEF583E5822CF58241
:100ED300E43583F583E493FBE4FAEB30E706AF16DE
:100EE300AE158004AF18AE17121053EB25E0FB0AC2
:080EF300BA08E70CBC10C5228F
:100D43008E088F098C0A8D0B8B0C8A0D890EE4F5A6
:100D530013F514AB0CAA0DA90E120E696048E50930
:100D63002514FDE5083513FC751B00751C087B0F66
:100D73007A00AF0BAE0A120F75AB0CAA0DA90E12B7
:100D83000E69FFAB12AA11AD10AC0F120EB37408AB
:100D93002514F514E43513F5137401250EF50EE44B
:070DA300350DF50D80AD22B6
:100F75008A198B1A8D828C83AD07AC06AF82AE833E
:100F8500E51C2582CBE51B3583CB24FFCB34FFFA4B
:100F9500E51A2DF582E5193CF583E58224FFF52454
:090FA500E58334FFF523020EFB85
:1010A8008C258D26AD07AC067F207E00120000AD92
:0A10B80026AC257F217E0002000017
:100F38008F088D0912102F7F42120DAAEF700280C0
:100F4800207F017E001210F8AF08120DAAEF700280
:100F5800800F7F017E001210F8AF09120DAAEF7002
:0D0F68000612108D7F002212108D7F0122D5
:100606007D047F3A120F387DD07F40120F387D145B
:100616007F12120F387D807F32120F387D167F17BA
:10062600120F387D047F18120F387D027F19120FC2
:10063600387D7B7F1A120F387D067F03120F38E450
:10064600FD7F0C120F38E4FD7F3E120F387D3A7F96
:1006560070120F387D357F71120F387D117F72123F
:100666000F38E4FD7F73120F387D027FA2120F3818
:100676007D817F11120F387D207F7A120F387D1C05
:100686007F7B120F387D287F7C120F387D3C7F7D63
:10069600120F387D557F7E120F387D687F7F120FCF
:1006A600387D767F80120F387D807F81120F387DEE
:1006B600887F82120F387D8F7F83120F387D967F59
:1006C60084120F387DA37F85120F387DAF7F861287
:1006D6000F387DC47F87120F387DD77F88120F3879
:1006E6007DE87F89120F387DE07F13120F38E4FD15
:1006F600FF120F38E4FD7F10120F38E4FD7F0D1254
:100706000F387D287F14120F387D057FA5120F380C
:100716007D077FAB120F387D757F24120F387D63FE
:100726007F25120F387DA57F26120F387D787F9F93
:10073600120F387D687FA0120F387DDF7FA6120F5B
:10074600387DDF7FA7120F387DF07FA8120F387D26
:10075600907FA9120F387D947FAA120F387DE57F0E
:1007660013120F387D617F0E120F387D4B7F0F12EB
:100776000F387D027F16120F387D057F1E120F3847
:100786007D027F21120F387D017F22120F387D07EF
:100796007F29120F387D0B7F33120F387D0B7F3583
:1007A600120F387D1D7F37120F387D717F38120F7B
:1007B600387D2A7F39120F387D787F3C120F387DBD
:1007C600407F4D120F387D207F4E120F38E4FD7F9B
:1007D60069120F387D607F6B120F387D197F741296
:1007E6000F387D4F7F8D120F38E4FD7F8E120F3844
:1007F600E4FD7F8F120F38E4FD7F90120F38E4FD81
:100806007F91120F38E4FD7F92120F38E4FD7F9638
:10081600120F387D807F9A120F387D847FB0120FB9
:10082600387D0C7FB1120F387D0E7FB2120F387DE6
:10083600827FB3120F387D0A7FB8120F387D147F7E
:1008460043120F387DF07F44120F387D347F4512F6
:100856000F387D587F46120F387D287F47120F3894
:100866007D3A7F48120F387D887F59120F387D8870
:100876007F5A120F387D447F5B120F387D677F5C8D
:10088600120F387D497F5D120F387D0E7F5E120F85
:10089600387D047F64120F387D207F65120F387D06
:1008A600057F66120F387D047F94120F387D087F0E
:1008B60095120F387D0A7F6C120F387D557F6D12A9
:1008C6000F387D117F6E120F387D9F7F6F120F38A4
:1008D6007D407F6A120F387D407F01120F387D40C0
:1008E6007F02120F387DE77F13120F38E4FD7F1564
:1008F600120F387D807F4F120F387D807F50120F88
:1009060038E4FD7F51120F387D227F52120F387D59
:100916005E7F53120F387D807F54120F387D9E7F85
:1009260058120F387D087F41120F38E4FD7F3F12C1
:100936000F387D117F74120F387D057F75120F38C1
:100946007DC17F76120F38E4FD7F4C120F387D0192
:100956007F77120F387DC27F3D120F387D017F4BA6
:10096600120F387D607FC9120F387D387F41120F14
:10097600387D407F56120F387D117F34120F387D37
:10098600027F3B120F387D097FA4120F38E4FD7FEA
:1009960096120F387D307F97120F387D207F981280
:1009A6000F387D307F99120F387D847F9A120F3869
:1009B6007D297F9B120F387D037F9C120F387D4C5B
:1009C6007F9D120F387D3F7F9E120F387D047F7802
:1009D600120F387D017F79120F387DF07FC8120F14
:1009E600387D0F7F79120F38E4FD7FC8120F387DEE
:1009F600107F79120F387D7E7FC8120F387D0A7FEF
:100A060079120F387D807FC8120F387D0B7F7912DF
:100A16000F387D017FC8120F387D0C7F79120F3891
:100A26007D0F7FC8120F387D0D7F79120F387D201C
:100A36007FC8120F387D097F79120F387D807FC8F5
:100A4600120F387D027F79120F387DC07FC8120FD2
:100A5600387D037F79120F387D407FC8120F387DAD
:100A6600057F79120F387D307FC8120F387D267FBB
:0B0A760079120F38E4FD7F09020F38F1
:101071001211197D807F12120F38EF7002FF227F4B
:0C108100027E001210C21206067F01223F
:030000000210ECFF
:0C10EC00787FE4F6D8FD758126020C69BF
:100E6900BB010689828A83E0225002E722BBFE0287
:090E7900E32289828A83E49322BA
:100E8200EB9FF5F0EA9E42F0E99D42F0E89C45F0C6
:010E9200223D
:100E93007401FF3395E0FEFDFC080808E6CF2FF64A
:100EA30018E6CE3EF618E6CD3DF618E6CC3CF62223
:00000001FF
